:100000000C9462000C948A000C948A000C948A0070
:100010000C948A000C948A000C948A000C948A0038
:100020000C948A000C948A000C948A000C948A0028
:100030000C948A000C948A000C948A000C948A0018
:100040000C948D040C948A000C949F030C947903F7
:100050000C948A000C948A000C948A000C948A00F8
:100060000C94D7040C948A000000000024002700A0
:100070002A0000000000250028002B0000000000DE
:1000800023002600290004040404040404040202DA
:100090000202020203030303030301020408102007
:1000A0004080010204081020010204081020000012
:1000B0000008000201000003040700000000000027
:1000C00000008C0C11241FBECFEFD8E0DEBFCDBFE7
:1000D00011E0A0E0B1E0ECE0FEE102C005900D927D
:1000E000AA3AB107D9F723E0AAEAB1E001C01D920C
:1000F000A334B207E1F710E0C2E6D0E004C02197D4
:10010000FE010E94470DC136D107C9F70E94360A89
:100110000C94040F0C940000CF92DF92EF92FF92A8
:100120000F931F93CF93DF936C017A018B01C0E093
:10013000D0E0CE15DF0589F0D8016D918D01D60193
:10014000ED91FC910190F081E02DC6010995892B7C
:1001500011F47E0102C02196ECCFC701DF91CF914F
:100160001F910F91FF90EF90DF90CF900895FC01C9
:10017000918D828D981761F0828DDF01A80FB11DDE
:100180005D968C91928D9F5F9F73928F90E0089502
:100190008FEF9FEF0895FC01918D828D981731F0BC
:1001A000828DE80FF11D858D90E008958FEF9FEF10
:1001B0000895FC01918D228D892F90E0805C9F4FE6
:1001C000821B91098F73992708958AE692E00E9415
:1001D000D90021E0892B09F420E0822F0895FC0149
:1001E000848DDF01A80FB11DA35ABF4F2C91848DC0
:1001F00090E001968F739927848FA689B7892C93F5
:10020000A089B1898C9180648C93938D848D98138F
:1002100006C00288F389E02D80818F7D8083089558
:10022000EF92FF920F931F93CF93DF93EC0181E046
:10023000888F9B8D8C8D981305C0E889F989808102
:1002400085FD24C0F62E0B8D10E00F5F1F4F0F733E
:100250001127E02E8C8DE8120CC00FB607FCFACFE8
:10026000E889F989808185FFF5CFCE010E94EF00F2
:10027000F1CF8B8DFE01E80FF11DE35AFF4FF082A5
:100280000B8FEA89FB898081806207C0EE89FF8934
:100290006083E889F98980818064808381E090E0CF
:1002A000DF91CF911F910F91FF90EF900895CF9321
:1002B000DF93EC01888D8823C9F0EA89FB8980816E
:1002C00085FD05C0A889B9898C9186FD0FC00FB640
:1002D00007FCF5CF808185FFF2CFA889B9898C9181
:1002E00085FFEDCFCE010E94EF00E7CFDF91CF91E8
:1002F000089580E090E0892B29F00E94E5008111AB
:100300000C9400000895833081F028F4813099F036
:100310008230A1F008958730A9F08830B9F0843098
:10032000D1F4809180008F7D03C0809180008F7711
:1003300080938000089584B58F7702C084B58F7D47
:1003400084BD08958091B0008F7703C08091B00084
:100350008F7D8093B0000895CF93DF93282F30E0F6
:10036000F901E255FF4F8491F901E656FF4FD49110
:10037000F901EA57FF4FC491CC2391F081110E94FB
:100380008301EC2FF0E0EE0FFF1FE458FF4FA59123
:10039000B491EC91ED2381E090E021F480E002C083
:1003A00080E090E0DF91CF9108953FB7F89480917D
:1003B000F6019091F701A091F801B091F90126B5ED
:1003C000A89B05C02F3F19F00196A11DB11D3FBF8D
:1003D000BA2FA92F982F8827820F911DA11DB11D1B
:1003E000BC01CD0142E0660F771F881F991F4A9517
:1003F000D1F7089585ED8093BC008091BC0084FD09
:10040000FCCF1092460208954091CC01262F30E097
:10041000240F311D21323105DCF4209146022430B5
:10042000C9F4FC0180E090E0861758F43091CC01CB
:100430002191DC01A655BE4FA30FB11D2C9301964F
:10044000F3CF8091CC01680F6093CC0180E00895D8
:1004500081E0089582E008950895E091FF01809180
:10046000FE01E81730F4F0E0E050FE4F808190E0AC
:1004700008958FEF9FEF08959091FF018091FE0105
:10048000981750F4E92FF0E0E050FE4F208130E063
:100490009F5F9093FF0102C02FEF3FEFC9010895C6
:1004A0008091FE0190E02091FF01821B9109089547
:1004B000CF92DF92EF92FF920F931F93CF93DF9330
:1004C0007C01262F972F8A0180914702882391F083
:1004D000C62FD72F6E01C40ED51ECC15DD0571F0C9
:1004E0006991D701ED91FC910190F081E02DC70158
:1004F0000995F3CF642F822F0E940402C801DF9177
:10050000CF911F910F91FF90EF90DF90CF900895C2
:10051000CF93DF931F92CDB7DEB769832091470257
:100520002223D1F020916902203240F021E030E016
:10053000FC013383228380E090E015C08091480263
:10054000E82FF0E0E75BFD4F998190838F5F809308
:1005500048028093690205C061E0CE0101960E94C5
:10056000040281E090E00F90DF91CF9108950E9406
:10057000FF0E6115710579F0FB0101900020E9F78C
:100580003197AF01461B570BDC01ED91FC910280C6
:10059000F381E02D099480E090E008954F925F92FE
:1005A0006F927F92EF92FF920F931F93CF93DF93FF
:1005B000CDB7DEB7A1970FB6F894DEBF0FBECDBFA3
:1005C0007C01FA01CB0119A2223008F42AE08E0145
:1005D0000F5D1F4F422E512C612C712CBF01A301C6
:1005E00092010E94F30CF901CA01015011096A300D
:1005F00014F4605D01C0695CD8016C93232B242B3B
:10060000252B61F7B801C7010E94B902A1960FB668
:10061000F894DEBF0FBECDBFDF91CF911F910F9138
:10062000FF90EF907F906F905F904F900895CF92E2
:10063000DF92EF92FF920F931F93CF93DF93EC0122
:100640006A017B012115310579F4E881F981019076
:10065000F081E02D642FDF91CF911F910F91FF90DA
:10066000EF90DF90CF9009942A30310509F577FF9C
:100670001EC0E881F9810190F081E02D6DE20995BD
:100680008C0144275527BA014C195D096E097F0971
:100690002AE0CE010E94CE02800F911FDF91CF9100
:1006A0001F910F91FF90EF90DF90CF9008952AE077
:1006B000B701A601CE01DF91CF911F910F91FF905D
:1006C000EF90DF90CF900C94CE020F931F93CF93B7
:1006D000DF93EC010E94B9028C0168E271E0CE0167
:1006E0000E94B902800F911FDF91CF911F910F914E
:1006F00008951F920F920FB60F9211242F933F93DC
:100700004F935F936F937F938F939F93AF93BF9319
:10071000EF93FF938AE692E00E94EF00FF91EF9142
:10072000BF91AF919F918F917F916F915F914F9109
:100730003F912F910F900FBE0F901F9018951F9211
:100740000F920FB60F9211242F938F939F93EF93D5
:10075000FF93E0917A02F0917B028081E091800228
:10076000F091810282FD12C09081809183028F5F9F
:100770008F7320918402821751F0E0918302F0E0A0
:10078000E659FD4F958F8093830201C08081FF91D0
:10079000EF919F918F912F910F900FBE0F901F900F
:1007A00018951F93CF93DF93282F30E0F901E2557E
:1007B000FF4F8491F901E656FF4FD491F901EA57B2
:1007C000FF4FC491CC23C9F0162F81110E948301E1
:1007D000EC2FF0E0EE0FFF1FEE58FF4FA591B49104
:1007E0008FB7F894111105C09C91ED2FE095E92386
:1007F00002C0EC91ED2BEC938FBFDF91CF911F9155
:100800000895CF93DF93EC0160E08E810E94D103C5
:1008100061E08E810E94D10360E08E810E94D1034D
:100820008BE891E00197F1F7DF91CF910895CF9395
:10083000DF9390E0FC01E656FF4F2491FC01EA575C
:10084000FF4F8491882361F190E0880F991FFC018C
:10085000E859FF4FC591D491FC01EE58FF4FA59187
:10086000B491611109C09FB7F894888120958223C3
:100870008883EC912E230BC0623061F49FB7F8940B
:100880003881822F809583238883EC912E2B2C93A3
:100890009FBF06C08FB7F894E8812E2B28838FBFA7
:1008A000DF91CF9108958F929F92AF92BF92CF9296
:1008B000DF92EF92FF926B017C010E94D5014B0108
:1008C0005C01C114D104E104F104F1F00E94D501EE
:1008D000DC01CB0188199909AA09BB09883E93401C
:1008E000A105B10570F321E0C21AD108E108F108B1
:1008F00088EE880E83E0981EA11CB11CC114D1049F
:10090000E104F10419F7DDCFFF90EF90DF90CF9075
:10091000BF90AF909F908F9008951F920F920FB647
:100920000F9211242F933F938F939F93AF93BF9375
:100930008091F2019091F301A091F401B091F50141
:100940003091F10123E0230F2D3720F40196A11DF2
:10095000B11D05C026E8230F0296A11DB11D2093ED
:10096000F1018093F2019093F301A093F401B0930D
:10097000F5018091F6019091F701A091F801B091F5
:10098000F9010196A11DB11D8093F6019093F70125
:10099000A093F801B093F901BF91AF919F918F910E
:1009A0003F912F910F900FBE0F901F9018951F929F
:1009B0000F920FB60F9211242F933F934F935F9393
:1009C0006F937F938F939F93AF93BF93EF93FF9317
:1009D0008091B900887F803609F49CC068F5883220
:1009E00009F45BC090F4803109F454C038F48823D2
:1009F00009F4F6C0883009F44DC0F6C0883109F416
:100A00004CC0803209F45DC0EFC0803409F468C086
:100A100048F4803309F455C0883309F0E5C0809369
:100A20004402D8C0803509F44FC0883509F45DC050
:100A3000883409F0D9C0D6C0883909F4C7C0A8F4F1
:100A4000883709F467C038F4883609F463C0803702
:100A500009F460C0C9C0883809F4B8C0803909F405
:100A60005FC0803809F0C0C05BC0803B09F486C01D
:100A700038F4803A09F466C0883A09F47FC0B4C0FB
:100A8000803C09F4A7C0883C09F4A4C0883B09F461
:100A90008AC0AAC08091210210C090914302809127
:100AA0004202981770F5E091430281E08E0F809327
:100AB0004302F0E0EE5DFD4F80818093BB0085EC4A
:100AC00086C0809344028EC0E091430281E08E0F85
:100AD000809343028091BB00F0E0EE5DFD4F808388
:100AE00090914302809142026EC0E091430281E006
:100AF0008E0F809343028091BB00F0E0EE5DFD4FCE
:100B000080838091450281116DC081E08093200235
:100B100084EA61C083E0809346021092F001CFCF57
:100B20008091F001803208F051C0E091F00181E045
:100B30008E0F8093F0018091BB00F0E0E053FE4FF8
:100B40008083BDCF85EC8093BC00109246028091DB
:100B5000F001803230F4E091F001F0E0E053FE4F1C
:100B600010826091F00170E0E091CE01F091CF0130
:100B700080ED91E009951092F00136C084E08093F9
:100B800046021092CD011092CC01E091CA01F09181
:100B9000CB0109958091CC01811105C081E0809342
:100BA000CC011092AA01E091CD0181E08E0F8093DB
:100BB000CD01F0E0E655FE4F80818093BB0090911F
:100BC000CD018091CC01981708F479CF85E8809306
:100BD000BC000AC085EC8093BC001092460204C0A1
:100BE000109244020E94FA01FF91EF91BF91AF91E0
:100BF0009F918F917F916F915F914F913F912F9135
:100C00000F900FBE0F901F901895CF92DF92EF922A
:100C1000FF920F931F93CF93DF937C016C0187E0CA
:100C2000C80ED11CC0E0D0E0062F10E0B8010C2E99
:100C300002C0759567950A94E2F76170F60181919B
:100C40006F010E94D1032196C430D10579F7C70105
:100C5000DF91CF911F910F91FF90EF90DF90CF9098
:100C60000C940104CF92DF92EF92FF920F931F93A7
:100C7000CF93DF93EC01F62E642F8C810E94D10379
:100C80008D818F3F19F060E00E94D1038F850F2D79
:100C900010E084FF25C06E0187E0C80ED11CE12C56
:100CA000F12CB8010E2C02C0759567950A94E2F7F5
:100CB0006170F60181916F010E94D103FFEFEF1A7D
:100CC000FF0A88E0E816F10461F7CE01DF91CF91C9
:100CD0001F910F91FF90EF90DF90CF900C94010443
:100CE000B80184E0759567958A95E1F7CE010E9479
:100CF00005066F2DCE01DF91CF911F910F91FF90CF
:100D0000EF90DF90CF900C94050641E00E943206F0
:100D100081E090E0089540E00C94320661E00E948A
:100D20008B068BE39FE10197F1F70895209169020B
:100D300090914203213208F04AC08091460281110D
:100D4000FCCF32E03093460231E0309345023FEF72
:100D5000309344021092430220934202A9E4B2E08D
:100D600042E252E0FA013E2F341B321718F43D9153
:100D70003193F9CF1092210220912102990F922BE9
:100D80009093210290912002913061F41092200200
:100D9000909121029093BB009091BC0093FDF8CFFD
:100DA00095EC01C095EE9093BC0090914602923074
:100DB000E1F3909144029F3F79F0809144028032A8
:100DC00041F080914402803331F084E005C081E03D
:100DD00003C082E001C083E01092480210926902D1
:100DE000109247020895CF93C82F81E08093470265
:100DF00087E780934203109248021092690264EFE1
:100E000087E093E00E9488026C2F87E093E00E94C5
:100E10008802CF910C949606909146029111FCCFD6
:100E2000813208F080E291E090934602909345026F
:100E30002FEF2093440210924302280F2093420286
:100E400090932102909121029E6E909321029091A5
:100E50002002913061F4109220029091210290932F
:100E6000BB009091BC0093FDF8CF95EC01C095EECE
:100E70009093BC00909146029130E1F3909143022F
:100E8000981710F480914302A2E2B2E020E032E031
:100E9000F9019E2F921B981718F49D919193F9CF09
:100EA0001092FF018093FE010895EF92FF920F933D
:100EB0001F93CF93DF93EC01623018F08F85886029
:100EC0008F876B8B1C8A80E48D8B80E18E8B80E515
:100ED0008F8B61E08C810E9417048D818F3F19F008
:100EE00061E00E94170461E08E810E9417047E0178
:100EF00087E0E80EF11C00E010E08F8584FD03C060
:100F000084E090E002C088E090E0081719074CF4F4
:100F100061E0F70181917F010E9417040F5F1F4F6D
:100F2000ECCF8BE39DE00197F1F760E08C810E94AC
:100F3000D10360E08E810E94D1038D818F3F19F033
:100F400060E00E94D1036F8564FD1DC063E0CE01A7
:100F50000E9405060BE416E4C8010197F1F763E06F
:100F6000CE010E940506C8010197F1F763E0CE01AA
:100F70000E94050683E592E00197F1F762E0CE0159
:100F80000E94050616C06062CE010E948B068BE4AB
:100F900096E40197F1F76F856062CE010E948B069F
:100FA00083E592E00197F1F76F856062CE010E94C0
:100FB0008B066F856062CE010E948B0684E0888B71
:100FC0006CE0CE010E948B06CE010E948E0682E06C
:100FD000898B66E0CE01DF91CF911F910F91FF9039
:100FE000EF900C948B06CF93DF93C1E0C093470240
:100FF00097E7909342031092480210926902682F7B
:1010000087E093E00E9488020E949606C093470200
:10101000109248021092690282E090E00E940C0750
:1010200087E093E00E943C02D82F80E0C82F87E041
:1010300093E00E943C02C82BD92B0E949606CE0159
:10104000DF91CF910895CF93C1E0C093470297E716
:10105000909342031092480210926902682F87E031
:1010600093E00E9488020E949606C0934702109265
:1010700048021092690281E090E00E940C0787E02C
:1010800093E00E943C02C82F0E9496068C2FCF91BD
:101090000895843008F083E090913D03891710F0A3
:1010A0008FEF890FE82FF0E0E65DFC4F6489606800
:1010B0008AE293E00C948B063F924F925F926F927C
:1010C0007F928F929F92AF92BF92CF92DF92EF92D8
:1010D000FF920F931F93CF93DF93CDB7DEB728977F
:1010E0000FB6F894DEBF0FBECDBF8EE20E94F306AE
:1010F00065E070E080E090E00E94530486EF0E947B
:10110000F3076C01E12CF12C809113038295880F79
:10111000880F807C8C5C0E94F30680911303811100
:1011200005C065E070E080E090E012C0813029F4F5
:1011300068E070E080E090E00BC0823029F46EE05F
:1011400070E080E090E004C06AE170E080E090E050
:101150000E94530486EF0E94F3074C01A12CB12C8E
:10116000BA2CA92C982C882488EF0E942308882A5E
:10117000309013038091280390912903A7019601D1
:10118000281B390B41095109A0912603B09127036F
:101190000E94340D6B017C01AFE0F594E794D79485
:1011A000C794AA95D1F76091200370912103CB01D8
:1011B000770FAA0BBB0BBC01CD01BBE0660F771FFD
:1011C000881F991FBA95D1F72091220330912303EC
:1011D0008901330F220B330BA90198012C0D3D1D02
:1011E0004E1D5F1D0E94150DC20ED31EE41EF51E7E
:1011F00020EAC21A2FE0D20AE108F108A7019601FD
:10120000C701B6010E94E30C9B01AC011CE055959F
:101210004795379527951A95D1F729833A834B83BC
:101220005C830091140310911503A0911803B091F1
:101230001903A70196010E943F0D2B013C018DE08F
:1012400075946794579447948A95D1F7A0911A039F
:10125000B0911B0329813A814B815C810E943F0D33
:10126000BB2797FDB095AB2F840D951DA61DB71D0F
:101270000296A11DB11D32E0B595A795979587956A
:101280003A95D1F79C01AD0130584F4F5F4FA09177
:101290002403B09125030E94340D2B013C014FE043
:1012A00076946794579447944A95D1F788E090E0F4
:1012B00083199109A501940104C056954795379566
:1012C00027958A95D2F72D833E834F83588748010F
:1012D000110FAA08BB0852E0880C991CAA1CBB1C61
:1012E0005A95D1F7A0911C03B0911D0329813A8131
:1012F0004B815C810E943F0D9B01AC016BE05595D9
:101300004795379527956A95D1F729833A834B837B
:101310005C83A0911603B0911703A70196010E9468
:101320003F0DDC01CB017BE0B595A795979587959F
:101330007A95D1F729813A814B815C81820F931F85
:10134000A41FB51F880D991DAA1DBB1D032C04C029
:10135000880F991FAA1FBB1F0A94D2F7BC01CD01A9
:101360006E5F7F4F8F4F9F4F24E030E040E050E0B2
:101370000E94150D8D819E81AF81B885821B930BD4
:10138000A40BB50B9C01AD0180E593ECA0E0B0E0AF
:10139000BC01CD0104C096958795779567953A94E1
:1013A000D2F70E94E30C97FD0BC0660F771F881FD2
:1013B000991FA30192010E94F30C69017A010AC0EE
:1013C000A30192010E94F30C69017A01CC0CDD1C8F
:1013D000EE1CFF1C9927F7FC9A958F2D7E2D6D2D05
:1013E0009B01AC010E94E30C9B01AC01AEEDBBE0A4
:1013F0000E94340D4C01BB2497FCB094AB2CA3E4A9
:10140000B3EEA70196010E94420DBB2797FDB09550
:10141000AB2F880D991DAA1DBB1D8153914FAF4F56
:10142000BF4F44E0B595A795979587954A95D1F715
:10143000BC01CD016C0D7D1D8E1D9F1D28960FB624
:10144000F894DEBF0FBECDBFDF91CF911F910F91FA
:10145000FF90EF90DF90CF90BF90AF909F908F90D4
:101460007F906F905F904F903F900895CF93DF9360
:1014700000D000D01F92CDB7DEB7789484B58260DB
:1014800084BD84B5816084BD85B5826085BD85B528
:10149000816085BD80916E00816080936E001092A6
:1014A0008100809181008260809381008091810021
:1014B00081608093810080918000816080938000B2
:1014C0008091B10084608093B1008091B000816010
:1014D0008093B00080917A00846080937A0080913C
:1014E0007A00826080937A0080917A008160809394
:1014F0007A0080917A00806880937A001092C1000F
:1015000062E08AE293E00E945507E0917A02F0914E
:101510007B0282E08083E0917602F0917702108274
:10152000E0917802F09179028FEC80831092820230
:10153000E0917E02F0917F0286E08083E0917C0260
:10154000F0917D02808180618083E0917C02F09146
:101550007D02808188608083E0917C02F0917D0231
:10156000808180688083E0917C02F0917D0280819F
:101570008F7D808383E0809313031092FF0110928C
:10158000FE0110924802109269021092460281E018
:10159000809345021092200261E082E10E94D10313
:1015A00061E083E10E94D1038091B9008E7F809336
:1015B000B9008091B9008D7F8093B90088E4809351
:1015C000B80085E48093BC0080ED0E942308853537
:1015D00009F09BC18AEA0E94F30790931503809358
:1015E00014038CEA0E94F307909317038093160369
:1015F0008EEA0E94F307909319038093180380EBFF
:101600000E94F307909325038093240382EB0E94AA
:10161000F307909327038093260384EB0E94F3073C
:10162000909329038093280386EB0E94F3079093FD
:101630001B0380931A0388EB0E94F30790931D030A
:1016400080931C038AEB0E94F30790931F038093FF
:101650001E038CEB0E94F3079093210380932003D9
:101660008EEB0E94F3079093230380932203882438
:101670008394912C81E480937C0080917A00806433
:1016800080937A0080917A0086FDFCCF609178008B
:101690008091790070E0782B072E000C880B990B55
:1016A0000E94060E20E030EC4FE754E40E945C0DEF
:1016B00020E030E048EC52E40E94920E0E94CE0DF1
:1016C0006B017C0119821A821B821C821D8261E0DF
:1016D0008EE00E94170460E08EE00E94D10362E178
:1016E00070E080E090E00E94530461E08EE00E9490
:1016F000D1038BE990E00197F1F760E08EE00E9462
:10170000170401E117E28EE00E94AC01892B21F45D
:1017100001501109C1F762C001E117E28EE00E9499
:10172000AC01019721F401501109C1F757C028E21B
:10173000A22EB12C17E000E091E1692E97E2792EFC
:101740008EE00E94AC01892B29F481E0681A7108AF
:10175000B9F744C00E94D5011B012C0181E1682E1C
:1017600087E2782E8EE00E94AC01019729F481E097
:10177000681A7108B9F732C00E94D501DC01CB01AB
:1017800082199309A409B5098997A105B10578F0D3
:10179000E1E0F0E0EC0FFD1FE00FF11D2081C4013E
:1017A000012E01C0880F0A94EAF7822B8083111161
:1017B00003C00F5F17E001C0115081E0A81AB10803
:1017C00009F0BACF898190E09093FB018093FA01F0
:1017D0008B8190E09093FD018093FC0180E00E945A
:1017E00049086BE271E08AE293E00E94B9024091FD
:1017F000FA015091FB01052E000C660B770B21E0DE
:101800008AE293E00E94CE0267E371E08AE293E00D
:101810000E94B90281E00E94490869E371E08AE20E
:1018200093E00E94B9024091FC015091FD01052E08
:10183000000C660B770B21E08AE293E00E94CE0257
:1018400061E471E08AE293E00E94650360ED77E075
:1018500080E090E00E94530480E00E9449088AE200
:1018600093E00E948E066DE471E08AE293E00E94AC
:10187000B9020E945C08AB01BC012AE030E08AE2B8
:1018800093E00E94170366E571E08AE293E00E940C
:1018900065036BE571E08AE692E00E94B9020E945E
:1018A0005C08AB01BC012AE030E08AE692E00E94CD
:1018B000170366E671E08AE692E00E94650381E024
:1018C0000E94490869E671E08AE293E00E94B90249
:1018D000A601DD0C660B770B2AE030E08AE293E08C
:1018E0000E94170367E371E08AE293E00E94B90265
:1018F00060ED77E080E090E00E9453048AE293E09C
:101900000E948E060E947901B5CE66E771E08AE6F4
:1019100092E00E946503FFCFEAE6F2E013821282B2
:1019200088EE93E0A0E0B0E084839583A683B7833C
:1019300024E031E03183208325EC30E035872487B3
:1019400024EC30E03787268720EC30E0318B208B89
:1019500021EC30E0338B228B22EC30E0358B248B72
:1019600026EC30E0378B268B118E128E138E148E60
:10197000E7E0F3E01382128284839583A683B78322
:1019800084E191E091838083EAE2F3E013821282A2
:1019900084E291E09183808387E084838FEF858365
:1019A00086E0868385E0878384E0808783E0818783
:1019B00082E082871386148615861686178661E074
:1019C000CF010C945507DB018F939F930E94340D38
:1019D000BF91AF91A29F800D911DA39F900DB29FCB
:1019E000900D11240895A1E21A2EAA1BBB1BFD0124
:1019F0000DC0AA1FBB1FEE1FFF1FA217B307E407EE
:101A0000F50720F0A21BB30BE40BF50B661F771F45
:101A1000881F991F1A9469F7609570958095909525
:101A20009B01AC01BD01CF010895052E97FB1EF46B
:101A300000940E942C0D57FD07D00E94F30C07FC68
:101A400003D04EF40C942C0D509540953095219573
:101A50003F4F4F4F5F4F08959095809570956195DA
:101A60007F4F8F4F9F4F08950E944D0DA59F900D62
:101A7000B49F900DA49F800D911D11240895B7FF70
:101A80000C94340D0E94340D821B930B0895EE0FBD
:101A9000FF1F0590F491E02D0994A29FB001B39F20
:101AA000C001A39F700D811D1124911DB29F700D67
:101AB000811D1124911D08950E94700D0C94580EE3
:101AC0000E94510E58F00E944A0E40F029F45F3FE8
:101AD00029F00C94410E51110C948C0E0C94470E6D
:101AE0000E94690E68F39923B1F3552391F3951B76
:101AF000550BBB27AA2762177307840738F09F5F2F
:101B00005F4F220F331F441FAA1FA9F335D00E2E9B
:101B10003AF0E0E832D091505040E695001CCAF708
:101B20002BD0FE2F29D0660F771F881FBB1F2617CB
:101B300037074807AB07B0E809F0BB0B802DBF01A2
:101B4000FF2793585F4F3AF09E3F510578F00C9471
:101B5000410E0C948C0E5F3FE4F3983ED4F38695CF
:101B600077956795B795F7959F5FC9F7880F911D92
:101B70009695879597F90895E1E0660F771F881F7E
:101B8000BB1F621773078407BA0720F0621B730B31
:101B9000840BBA0BEE1F88F7E09508950E94D50DCF
:101BA0006894B1110C948C0E08950E94710E88F007
:101BB0009F5798F0B92F9927B751B0F0E1F0660F11
:101BC000771F881F991F1AF0BA95C9F714C0B13052
:101BD00091F00E948B0EB1E008950C948B0E672F4C
:101BE000782F8827B85F39F0B93FCCF38695779581
:101BF0006795B395D9F73EF490958095709561956A
:101C00007F4F8F4F9F4F0895E89409C097FB3EF494
:101C100090958095709561957F4F8F4F9F4F992339
:101C2000A9F0F92F96E9BB279395F69587957795B7
:101C30006795B795F111F8CFFAF4BB0F11F460FF77
:101C40001BC06F5F7F4F8F4F9F4F16C0882311F0CF
:101C500096E911C0772321F09EE8872F762F05C0E3
:101C6000662371F096E8862F70E060E02AF09A957E
:101C7000660F771F881FDAF7880F9695879597F973
:101C8000089597F99F6780E870E060E008959FEFFE
:101C900080EC089500240A94161617061806090603
:101CA000089500240A9412161306140605060895D2
:101CB000092E0394000C11F4882352F0BB0F40F45A
:101CC000BF2B11F460FF04C06F5F7F4F8F4F9F4F9A
:101CD000089557FD9058440F551F59F05F3F71F01C
:101CE0004795880F97FB991F61F09F3F79F0879583
:101CF0000895121613061406551FF2CF4695F1DF0C
:101D000008C0161617061806991FF1CF869571059B
:101D1000610508940895E894BB2766277727CB01CF
:101D200097F908950E94A50E0C94580E0E944A0E31
:101D300038F00E94510E20F0952311F00C94410EC2
:101D40000C94470E11240C948C0E0E94690E70F3B3
:101D5000959FC1F3950F50E0551F629FF001729F50
:101D6000BB27F00DB11D639FAA27F00DB11DAA1F5F
:101D7000649F6627B00DA11D661F829F2227B00DAC
:101D8000A11D621F739FB00DA11D621F839FA00D37
:101D9000611D221F749F3327A00D611D231F849F87
:101DA000600D211D822F762F6A2F11249F575040DE
:101DB0009AF0F1F088234AF0EE0FFF1FBB1F661F59
:101DC000771F881F91505040A9F79E3F510580F022
:101DD0000C94410E0C948C0E5F3FE4F3983ED4F3C8
:101DE000869577956795B795F795E7959F5FC1F7C6
:101DF000FE2B880F911D9695879597F9089581E0A0
:0C1E000090E0F8940C94040FF894FFCFCD
:101E0C000000000010018C00D900B700CB00570176
:101E1C00000000008802580250023C022D022C02E5
:101E2C000000000085068C000D0A0048554D494401
:101E3C00495459203D2000250054656D70203D20EB
:101E4C0000202A43202020202020202000507265D2
:101E5C007375723D200050612020005072657373C1
:101E6C007572653D20005061004C49474854204C28
:101E7C004556454C3A00436F756C64206E6F742068
:101E8C0066696E6420612076616C696420424D50F5
:101E9C003038352073656E736F722C206368656300
:0A1EAC006B20776972696E672100F0
:00000001FF
