:200000003BC025C4FDC35DC05CC05BC05AC059C058C0ACC356C067C441C453C052C051C0B2
:2000200050C04FC04EC0000000003700340031000000000038003500320004040404040440
:2000400004040202020202020303030303030102040810204080010204081020010204082D
:2000600010200000000000000000000304060000000000000000A50411241FBECFE5D4E020
:20008000DEBFCDBF21E0AAE7B0E001C01D92A534B207E1F710E0A0E6B0E0ECEDFDE002C0BD
:2000A00005900D92AA37B107D9F710E0CCE3D0E003C02197FE0186D6CB33D107D1F789D483
:2000C0008BC69ECF90E0FC01EE59FF4F3491FC01E25BFF4F2491FC01E65CFF4FE491EE234B
:2000E00031F1332381F0343039F0363049F0333051F48FB58F7702C08FB58F7D8FBD03C0D8
:2001000085B58F7D85BDF0E0EE0FFF1FE05DFF4FA591B4919FB7F894611105C08C91E22F1F
:20012000E095E82302C0EC91E22BEC939FBF08956D989DB1937F9DB99DB19C7F9DB9709AF5
:20014000682F80912F01BEDF80914101909142018330910528F0880F991F04970197F1F7A8
:200160000895CF93DF9390E0FC01E25BFF4F2491FC01E65CFF4F8491882361F190E0880FBB
:20018000991FFC01EA5DFF4FC591D491FC01E05DFF4FA591B491611109C09FB7F894888131
:2001A000209582238883EC912E230BC0623061F49FB7F8948881322F309583238883EC911B
:2001C0002E2B2C939FBF06C08FB7F894E8812E2B28838FBFDF91CF9108958E3008F08E5055
:2001E0008770806487B9369A3699FECF84B125B190E0922B08953FB7F89480918C00909163
:200200008D00A0918E00B0918F0022B708B600FE05C02F3F19F00196A11DB11D3FBFBA2FE7
:20022000A92F982F8827820F911DA11DB11DBC01CD0143E0660F771F881F991F4A95D1F7E6
:2002400008958F929F92AF92BF92CF92DF92EF92FF92D1DF4B015C0185E0C82ED12CE12C7B
:20026000F12CC9DFDC01CB0188199909AA09BB09883E9340A105B105A0F321E0C21AD10818
:20028000E108F10888EE880E83E0981EA11CB11CC114D104E104F10421F7FF90EF90DF90B4
:2002A000CF90BF90AF909F908F9008950895CF92DF92EF92FF920F931F93CF93DF936C0150
:2002C0007A018B01C0E0D0E0CE15DF0581F0D8016D918D01D601ED91FC910190F081E02D39
:2002E000C6010995892B11F02196EECF7E01C701DF91CF911F910F91FF90EF90DF90CF902D
:200300000895089580E090E00895FC01538D448D252F30E0842F90E0821B930B541710F05B
:20032000CF96089501970895FC01918D828D981761F0828DDF01A80FB11D5D968C91928DB9
:200340009F5F9F73928F90E008958FEF9FEF0895FC01918D828D981731F0828DE80FF11DA8
:20036000858D90E008958FEF9FEF0895FC01918D228D892F90E0805C9F4F821B91098F73C0
:200380009927089580E990E0F1DF21E0892B09F420E0822F0895FC01848DDF01A80FB11DE4
:2003A000A35ABF4F2C91848D90E001968F739927848FA689B7892C93A089B1898C918274E4
:2003C0008C93938D848D981306C00288F389E02D80818F7D80830895EF92FF920F931F9336
:2003E000CF93DF93EC0181E0888F9B8D8C8D981305C0E889F989808185FD25C0F62E0B8DFC
:2004000010E00F5F1F4F0F731127E02E8C8DE8120BC00FB607FCFACFE889F989808185FF61
:20042000F5CFCE01B8DFF2CF8B8DFE01E80FF11DE35AFF4FF0829FB7F8940B8FEA89FB8945
:200440008081806209C09FB7F894EE89FF896083E889F9898081827480839FBF81E090E010
:20046000DF91CF911F910F91FF90EF900895CF93DF93EC01888D8823C1F0EA89FB89808187
:2004800085FD05C0A889B9898C9186FD0EC00FB607FCF5CF808185FFF2CFA889B9898C91D2
:2004A00085FFEDCFCE0177DFE8CFDF91CF91089580E090E0892B19F065DF8111A1CD089545
:2004C0008FB90000779BFECF8FB10895CF93DF93C82FD62F80E02CDE8C2F8F718062F0DF72
:2004E000C82F8D2FEDDF81E023DE8C2FDF91CF910895EF92FF920F931F93CF93DF93182F72
:200500007B01C42F80E014DE812F8F718062D8DFD82F8701CC2331F0F80181918F01D0DFE8
:20052000C150F8CF81E004DE8D2FDF91CF911F910F91FF90EF900895CF93C82F80E0F8DD8B
:200540008C2F8F71BDDF8FEFBBDFC82F81E0F0DD8C2FCF9108950F931F93CF938C0186E0A6
:20056000EBDFC82FC77D0230110531F4C0628BE990E0A0E0B0E00DC00130110529F085E55C
:2005800090E0A0E0B0E005C0C86081E490E0A0E0B0E080933D0190933E01A0933F01B093A0
:2005A00040016C2F86E092DF86E0C6DF91E0C81390E0892FCF911F910F910895CF93C82F63
:2005C00080E0B6DD8C2F7CDFC82F81E0B1DD8C2FCF910895EF92FF920F931F93CF93DF933A
:2005E0007C01C0913401DC2FC33008F0D2E080913501811102C0CD1B01C0C0E080E098DD97
:2006000080EA5EDF8701D15028F0F80181918F0157DFF9CFCC2321F080E052DFC150FACF6E
:2006200081E086DD80912D0190912E0120912F01309130018217930711F061E043DD8FEF81
:20064000BDDF8073E1F380912D0190912E0120912F01309130018217930711F060E032DD52
:2006600060E787E033DF84FF04C081EEA7DF80E001C081E0DF91CF911F910F91FF90EF90CE
:2006800008952FB7F8948091880090918900A0918A00B0918B002FBF40917E0050917F00E4
:2006A0006091800070918100841B950BA60BB70B893C9105A105B10570F0809166009091E6
:2006C000670001968530910514F081E090E090936700809366002FB7F894809188009091CD
:2006E0008900A0918A00B0918B002FBF80937E0090937F00A0938000B093810008952FB7CF
:20070000F8948091880090918900A0918A00B0918B002FBF40917A0050917B0060917C0081
:2007200070917D00841B950BA60BB70B893C9105A105B10530F09091860081E089278093E7
:2007400086002FB7F8948091880090918900A0918A00B0918B002FBF80937A0090937B00BE
:20076000A0937C00B0937D00089532D31F920F920FB60F9211242F933F938F939F93AF9351
:20078000BF938091880090918900A0918A00B0918B003091870026E0230F2D3720F40296AD
:2007A000A11DB11D05C029E8230F0396A11DB11D209387008093880090938900A0938A0042
:2007C000B0938B0080918C0090918D00A0918E00B0918F000196A11DB11D80938C0090938C
:2007E0008D00A0938E00B0938F00BF91AF919F918F913F912F910F900FBE0F901F90189502
:200800001F920F920FB60F9211242F933F934F935F936F937F938F939F93AF93BF93EF9305
:20082000FF93E0916200F09163000995FF91EF91BF91AF919F918F917F916F915F914F9101
:200840003F912F910F900FBE0F901F9018951F920F920FB60F9211242F933F934F935F934C
:200860006F937F938F939F93AF93BF93EF93FF93E0916000F09161000995FF91EF91BF91B7
:20088000AF919F918F917F916F915F914F913F912F910F900FBE0F901F9018951F920F929F
:2008A0000FB60F9211242F933F934F935F936F937F938F939F93AF93BF93EF93FF9380E9BC
:2008C00090E069DDFF91EF91BF91AF919F918F917F916F915F914F913F912F910F900FBE96
:2008E0000F901F9018951F920F920FB60F9211242F938F939F93EF93FF93E091A000F09154
:20090000A1008081E091A600F091A70082FD12C090818091A9008F5F8F732091AA008217F6
:2009200051F0E091A900F0E0E057FF4F958F8093A90001C08081FF91EF919F918F912F9145
:200940000F900FBE0F901F901895E0E9F0E01382128288EE93E0A0E0B0E084839583A6832D
:20096000B7838CE690E09183808380E490E09587848729E230E0378726872BE230E0318BEA
:20098000208B2AE230E0338B228B958B848B8CE290E0978B868B118E128E138E148EEDE294
:2009A000F1E08FE090E09183808380E190E093838283168280E28783108685E0868785E013
:2009C00090E0A0E0B0E0848B958BA68BB78B11860895CF93DF93CDB7DEB72A970FB6F894C2
:2009E000DEBF0FBECDBF789483B7826083BF83B7816083BF89B7816089BF1EBC8EB58260D2
:200A00008EBD8EB581608EBD8FB581608FBD85B5846085BD85B5806485BD329A319A30988C
:200A2000379A1AB8E091A000F091A10082E08083E0919C00F0919D001082E0919E00F0912E
:200A40009F0087E680831092A800E091A400F091A50086E88083E091A200F091A300808159
:200A600080618083E091A200F091A300808188608083E091A200F091A3008081806880834C
:200A8000E091A200F091A30080818F7D808380912D0190912E0120912F0130913001821714
:200AA000930711F061E05DDB80912F019091300120912D0130912E012817390711F061E0FF
:200AC00050DB1FB7F8948091820081111FC0E4E4F0E08491E8E5F0E09491E82FF0E0EE0F32
:200AE000FF1FEA5DFF4FA591B491EC91E92319F461E08AE0E7DA61E08AE033DB6C9A6E9AFF
:200B000061E08DE02EDB61E08BE02BDB809182008F5F809382001FBF80912D0190912E01E9
:200B200020912F01309130018217930711F060E0C9DA81E0FDDA85DB6CE080E0C7DC6FE590
:200B400084E0C4DC82E090E006DD882319F081E08093330186E0F0DC80E090E0FCDC80E046
:200B6000E7DA80E5ADDC83E7ABDC81E0E1DA60E08DE1ACDC60E08CE1A9DC1092350160E732
:200B800087E0A4DC6CE485E0A1DC82EE17DD81EE15DD80E0D1DC81FD05C0682F626080E06E
:200BA00095DC4FDB80E0C8DC682F6E7F80E08EDC60E081E08BDC82E090E0CDDC88E689834B
:200BC00085E48A8382E18B8385E08C831D821E821F82188640913B01BE016F5F7F4F8AE06A
:200BE00088DC40913B01BE016F5F7F4F80E181DC6091340181E16ADC62E082E0B2DA62E02B
:200C000083E0AFDA8FE793E0909361008093600085B78C7F826085BF8BB780648BBF81E4C6
:200C200093E0909363008093620085B7837F886085BF8BB780688BBF43E5242E312C52E55A
:200C4000452E512C60E5662E712C7FE4C72ED12CE9E5AE2EB12CFAE58F2E912CF0908600F3
:200C600080918500F816D1F0FF2059F09A86898604E110E0CE010996ADDC01501109D1F779
:200C80000AC0BA86A98604E110E0CE010996A2DC01501109D1F7F092850092C000916600D7
:200CA0001091670080916400909165000817190709F444C00130110569F4DA86C98634E189
:200CC000E32EF12CCE01099685DC21E0E21AF108C9F72FC00230110569F47A86698624E1D9
:200CE000E22EF12CCE01099675DC81E0E81AF108C9F71FC00330110569F45A86498694E143
:200D0000E92EF12CCE01099665DC91E0E91AF108C9F70FC00430110561F43A86298684E181
:200D2000E82EF12CCE01099655DC21E0E21AF108C9F7109365000093640042C08EE04DDA95
:200D40008C01909384008093830081E146DA9801255032402430310548F49C012A5F31406A
:200D600023303105C0F484E490E025C00D3F23E012073CF0811524E0920768F481E490E081
:200D80001AC00431110538F4811524E0920718F485E490E010C004511109093E134080F49D
:200DA0008431910518F483E490E005C08D3F93403CF082E490E09A878987CE0109960ADC1A
:200DC00077DB4CCFEE0FFF1F0590F491E02D099481E090E0F89400C0F894FFCF56015601A2
:160DE0000100010000000000EC01570185013702B6019401A80102
:00000001FF
